{
  "contractName": "ETHUSD",
  "abi": [
    {
      "inputs": [],
      "stateMutability": "nonpayable",
      "type": "constructor"
    },
    {
      "stateMutability": "payable",
      "type": "receive"
    },
    {
      "inputs": [],
      "name": "getLatestPrice",
      "outputs": [
        {
          "internalType": "int256",
          "name": "",
          "type": "int256"
        }
      ],
      "stateMutability": "view",
      "type": "function"
    },
    {
      "inputs": [],
      "name": "getLatestPriceTimestamp",
      "outputs": [
        {
          "internalType": "uint256",
          "name": "",
          "type": "uint256"
        }
      ],
      "stateMutability": "view",
      "type": "function"
    },
    {
      "inputs": [],
      "name": "withdraw",
      "outputs": [],
      "stateMutability": "payable",
      "type": "function"
    }
  ],
  "bytecode": "0x608060405234801561001057600080fd5b50738468b2bdce073a157e560aa4d9ccf6db1db985076000806101000a81548173ffffffffffffffffffffffffffffffffffffffff021916908373ffffffffffffffffffffffffffffffffffffffff1602179055506103e2806100746000396000f3fe6080604052600436106100385760003560e01c80630d0d2b01146101275780633ccfd60b146101525780638e15f4731461015c57610122565b36610122576000610047610187565b69d3c21bcecceda10000008161005957fe5b049050803410156100d2576040517f08c379a00000000000000000000000000000000000000000000000000000000081526004018080602001828103825260098152602001807f6d696e416d6f756e74000000000000000000000000000000000000000000000081525060200191505060405180910390fd5b34600160003373ffffffffffffffffffffffffffffffffffffffff1673ffffffffffffffffffffffffffffffffffffffff1681526020019081526020016000206000828254019250508190555050005b600080fd5b34801561013357600080fd5b5061013c610230565b6040518082815260200191505060405180910390f35b61015a6102d9565b005b34801561016857600080fd5b50610171610187565b6040518082815260200191505060405180910390f35b60008060009054906101000a900473ffffffffffffffffffffffffffffffffffffffff1673ffffffffffffffffffffffffffffffffffffffff166350d25bcd6040518163ffffffff1660e01b815260040160206040518083038186803b1580156101f057600080fd5b505afa158015610204573d6000803e3d6000fd5b505050506040513d602081101561021a57600080fd5b8101908080519060200190929190505050905090565b60008060009054906101000a900473ffffffffffffffffffffffffffffffffffffffff1673ffffffffffffffffffffffffffffffffffffffff16638205bf6a6040518163ffffffff1660e01b815260040160206040518083038186803b15801561029957600080fd5b505afa1580156102ad573d6000803e3d6000fd5b505050506040513d60208110156102c357600080fd5b8101908080519060200190929190505050905090565b6000600160003373ffffffffffffffffffffffffffffffffffffffff1673ffffffffffffffffffffffffffffffffffffffff1681526020019081526020016000205490506000600160003373ffffffffffffffffffffffffffffffffffffffff1673ffffffffffffffffffffffffffffffffffffffff168152602001908152602001600020819055503373ffffffffffffffffffffffffffffffffffffffff166108fc829081150290604051600060405180830381858888f193505050501580156103a8573d6000803e3d6000fd5b505056fea26469706673582212208efaac5b1f4b68f63c76231041de0fcb39d68b5f2367e33b49df67521366f9a164736f6c63430006070033",
  "immutableReferences": {},
  "source": "// SPDX-licence-Identifier: MIT\r\n\r\npragma solidity ^0.6.7;\r\n\r\nimport \"@chainlink/contracts/src/v0.6/interfaces/AggregatorInterface.sol\";\r\n\r\ncontract ETHUSD {\r\n    AggregatorInterface internal pricefeed;\r\n    mapping (address => uint) private balances;\r\n    \r\n    constructor() public {\r\n        pricefeed = AggregatorInterface(0x8468b2bDCE073A157E560AA4D9CcF6dB1DB98507);\r\n    }\r\n    \r\n    function getLatestPrice() public view returns (int256) {\r\n        return pricefeed.latestAnswer();\r\n    }\r\n    \r\n    function getLatestPriceTimestamp() public view returns (uint256) {\r\n        return pricefeed.latestTimestamp();\r\n    }\r\n    \r\n    receive() external payable {\r\n        uint minAmount = (1 ether) * (10 ** 6) / uint(getLatestPrice());\r\n        require(msg.value >= minAmount, \"minAmount\");\r\n        balances[msg.sender] += msg.value;\r\n    }\r\n    \r\n    function withdraw() external payable {\r\n        uint amount = balances[msg.sender];\r\n        balances[msg.sender] = 0;\r\n        msg.sender.transfer(amount);\r\n    }\r\n}",
  "sourcePath": "C:/Users/KBCI/oracle/contracts/ETHUSD.sol",
  "compiler": {
    "name": "solc",
    "version": "0.6.7+commit.b8d736ae.Emscripten.clang"
  },
  "schemaVersion": "3.2.2",
  "updatedAt": "2020-07-24T05:08:21.906Z",
  "devdoc": {
    "methods": {}
  },
  "userdoc": {
    "methods": {}
  }
}